{
  "contractName": "Idbox",
  "abi": [
    {
      "constant": false,
      "inputs": [
        {
          "name": "_userPhoneNumber",
          "type": "string"
        },
        {
          "name": "_cardPK",
          "type": "address"
        }
      ],
      "name": "attachNewCard",
      "outputs": [],
      "payable": false,
      "stateMutability": "nonpayable",
      "type": "function"
    },
    {
      "constant": true,
      "inputs": [
        {
          "name": "_userPhoneNumber",
          "type": "string"
        }
      ],
      "name": "findIdboxUserByPhoneNumber",
      "outputs": [
        {
          "name": "",
          "type": "string"
        },
        {
          "name": "",
          "type": "address"
        },
        {
          "name": "",
          "type": "uint256"
        },
        {
          "name": "",
          "type": "uint256"
        }
      ],
      "payable": false,
      "stateMutability": "view",
      "type": "function"
    },
    {
      "constant": true,
      "inputs": [
        {
          "name": "_cardPK",
          "type": "address"
        }
      ],
      "name": "findIdboxUserByWalletPK",
      "outputs": [
        {
          "name": "",
          "type": "string"
        },
        {
          "name": "",
          "type": "address"
        },
        {
          "name": "",
          "type": "uint256"
        },
        {
          "name": "",
          "type": "uint256"
        }
      ],
      "payable": false,
      "stateMutability": "view",
      "type": "function"
    },
    {
      "constant": false,
      "inputs": [
        {
          "name": "_userPhoneNumber",
          "type": "string"
        },
        {
          "name": "_cardPK",
          "type": "address"
        }
      ],
      "name": "addIdboxUser",
      "outputs": [],
      "payable": false,
      "stateMutability": "nonpayable",
      "type": "function"
    },
    {
      "inputs": [],
      "payable": false,
      "stateMutability": "nonpayable",
      "type": "constructor"
    },
    {
      "anonymous": false,
      "inputs": [
        {
          "indexed": false,
          "name": "phoneNumber",
          "type": "string"
        },
        {
          "indexed": false,
          "name": "cardPK",
          "type": "address"
        },
        {
          "indexed": false,
          "name": "mineTime",
          "type": "uint256"
        },
        {
          "indexed": false,
          "name": "blockNumber",
          "type": "uint256"
        }
      ],
      "name": "NewIdboxUserEvent",
      "type": "event"
    }
  ],
  "bytecode": "0x6060604052341561000f57600080fd5b610e968061001e6000396000f300606060405260043610610062576000357c0100000000000000000000000000000000000000000000000000000000900463ffffffff1680633aebb6cd146100675780634629a800146100e3578063b963e21f146101fa578063cebb72f6146102ed575b600080fd5b341561007257600080fd5b6100e1600480803590602001908201803590602001908080601f0160208091040260200160405190810160405280939291908181526020018383808284378201915050505050509190803573ffffffffffffffffffffffffffffffffffffffff16906020019091905050610369565b005b34156100ee57600080fd5b61013e600480803590602001908201803590602001908080601f0160208091040260200160405190810160405280939291908181526020018383808284378201915050505050509190505061046e565b60405180806020018573ffffffffffffffffffffffffffffffffffffffff1673ffffffffffffffffffffffffffffffffffffffff168152602001848152602001838152602001828103825286818151815260200191508051906020019080838360005b838110156101bc5780820151818401526020810190506101a1565b50505050905090810190601f1680156101e95780820380516001836020036101000a031916815260200191505b509550505050505060405180910390f35b341561020557600080fd5b610231600480803573ffffffffffffffffffffffffffffffffffffffff16906020019091905050610700565b60405180806020018573ffffffffffffffffffffffffffffffffffffffff1673ffffffffffffffffffffffffffffffffffffffff168152602001848152602001838152602001828103825286818151815260200191508051906020019080838360005b838110156102af578082015181840152602081019050610294565b50505050905090810190601f1680156102dc5780820380516001836020036101000a031916815260200191505b509550505050505060405180910390f35b34156102f857600080fd5b610367600480803590602001908201803590602001908080601f0160208091040260200160405190810160405280939291908181526020018383808284378201915050505050509190803573ffffffffffffffffffffffffffffffffffffffff16906020019091905050610a76565b005b806000836040518082805190602001908083835b6020831015156103a2578051825260208201915060208101905060208303925061037d565b6001836020036101000a038019825116818451168082178552505050505050905001915050908152602001604051809103902060010160006101000a81548173ffffffffffffffffffffffffffffffffffffffff021916908373ffffffffffffffffffffffffffffffffffffffff16021790555081600160008373ffffffffffffffffffffffffffffffffffffffff1673ffffffffffffffffffffffffffffffffffffffff1681526020019081526020016000209080519060200190610469929190610cd8565b505050565b610476610d58565b600080600080856040518082805190602001908083835b6020831015156104b2578051825260208201915060208101905060208303925061048d565b6001836020036101000a03801982511681845116808217855250505050505090500191505090815260200160405180910390206000016000866040518082805190602001908083835b60208310151561052057805182526020820191506020810190506020830392506104fb565b6001836020036101000a038019825116818451168082178552505050505050905001915050908152602001604051809103902060010160009054906101000a900473ffffffffffffffffffffffffffffffffffffffff166000876040518082805190602001908083835b6020831015156105af578051825260208201915060208101905060208303925061058a565b6001836020036101000a0380198251168184511680821785525050505050509050019150509081526020016040518091039020600201546000886040518082805190602001908083835b60208310151561061e57805182526020820191506020810190506020830392506105f9565b6001836020036101000a038019825116818451168082178552505050505050905001915050908152602001604051809103902060030154838054600181600116156101000203166002900480601f0160208091040260200160405190810160405280929190818152602001828054600181600116156101000203166002900480156106ea5780601f106106bf576101008083540402835291602001916106ea565b820191906000526020600020905b8154815290600101906020018083116106cd57829003601f168201915b5050505050935093509350935093509193509193565b610708610d58565b6000806000610715610d58565b600160008773ffffffffffffffffffffffffffffffffffffffff1673ffffffffffffffffffffffffffffffffffffffff1681526020019081526020016000208054600181600116156101000203166002900480601f0160208091040260200160405190810160405280929190818152602001828054600181600116156101000203166002900480156107e85780601f106107bd576101008083540402835291602001916107e8565b820191906000526020600020905b8154815290600101906020018083116107cb57829003601f168201915b505050505090506000816040518082805190602001908083835b6020831015156108275780518252602082019150602081019050602083039250610802565b6001836020036101000a03801982511681845116808217855250505050505090500191505090815260200160405180910390206000016000826040518082805190602001908083835b6020831015156108955780518252602082019150602081019050602083039250610870565b6001836020036101000a038019825116818451168082178552505050505050905001915050908152602001604051809103902060010160009054906101000a900473ffffffffffffffffffffffffffffffffffffffff166000836040518082805190602001908083835b60208310151561092457805182526020820191506020810190506020830392506108ff565b6001836020036101000a0380198251168184511680821785525050505050509050019150509081526020016040518091039020600201546000846040518082805190602001908083835b602083101515610993578051825260208201915060208101905060208303925061096e565b6001836020036101000a038019825116818451168082178552505050505050905001915050908152602001604051809103902060030154838054600181600116156101000203166002900480601f016020809104026020016040519081016040528092919081815260200182805460018160011615610100020316600290048015610a5f5780601f10610a3457610100808354040283529160200191610a5f565b820191906000526020600020905b815481529060010190602001808311610a4257829003601f168201915b505050505093509450945094509450509193509193565b610a7e610d6c565b6080604051908101604052808481526020018373ffffffffffffffffffffffffffffffffffffffff168152602001428152602001438152509050806000846040518082805190602001908083835b602083101515610af15780518252602082019150602081019050602083039250610acc565b6001836020036101000a03801982511681845116808217855250505050505090500191505090815260200160405180910390206000820151816000019080519060200190610b40929190610db1565b5060208201518160010160006101000a81548173ffffffffffffffffffffffffffffffffffffffff021916908373ffffffffffffffffffffffffffffffffffffffff160217905550604082015181600201556060820151816003015590505082600160008473ffffffffffffffffffffffffffffffffffffffff1673ffffffffffffffffffffffffffffffffffffffff1681526020019081526020016000209080519060200190610bf2929190610cd8565b507f6a34e96fbb3e60829beff1b2e300dc82c9188340cd7e5ddf5fe39713240b92278383424360405180806020018573ffffffffffffffffffffffffffffffffffffffff1673ffffffffffffffffffffffffffffffffffffffff168152602001848152602001838152602001828103825286818151815260200191508051906020019080838360005b83811015610c96578082015181840152602081019050610c7b565b50505050905090810190601f168015610cc35780820380516001836020036101000a031916815260200191505b509550505050505060405180910390a1505050565b828054600181600116156101000203166002900490600052602060002090601f016020900481019282601f10610d1957805160ff1916838001178555610d47565b82800160010185558215610d47579182015b82811115610d46578251825591602001919060010190610d2b565b5b509050610d549190610e31565b5090565b602060405190810160405280600081525090565b608060405190810160405280610d80610e56565b8152602001600073ffffffffffffffffffffffffffffffffffffffff16815260200160008152602001600081525090565b828054600181600116156101000203166002900490600052602060002090601f016020900481019282601f10610df257805160ff1916838001178555610e20565b82800160010185558215610e20579182015b82811115610e1f578251825591602001919060010190610e04565b5b509050610e2d9190610e31565b5090565b610e5391905b80821115610e4f576000816000905550600101610e37565b5090565b90565b6020604051908101604052806000815250905600a165627a7a723058201f0567185bf73fdde519ffc59f226c64e5fb5aab4ad485b966f45418443f1d910029",
  "source": "pragma solidity ^0.4.4;\n\ncontract Idbox {\n\n  event NewIdboxUserEvent(string phoneNumber, address cardPK, uint mineTime, uint blockNumber);\n\n  struct IdboxUser {\n    string phoneNumber;\n    address cardPK;\n    uint mineTime;\n    uint blockNumber;\n  }\n\n  mapping (string => IdboxUser) private idboxUsersByPhoneNumber;\n  mapping (address => string) private walletPkToPhoneNumber;\n\n  function Idbox() public {\n    // constructor\n  }\n  function addIdboxUser(string _userPhoneNumber, address _cardPK) public {\n      IdboxUser memory newIdboxUser = IdboxUser(_userPhoneNumber, _cardPK, now, block.number);\n      idboxUsersByPhoneNumber[_userPhoneNumber] = newIdboxUser;\n      walletPkToPhoneNumber[_cardPK] = _userPhoneNumber;\n      NewIdboxUserEvent(_userPhoneNumber, _cardPK, now, block.number);\n  }\n  function attachNewCard(string _userPhoneNumber, address _cardPK) public {\n      idboxUsersByPhoneNumber[_userPhoneNumber].cardPK = _cardPK;\n      walletPkToPhoneNumber[_cardPK] = _userPhoneNumber;\n  }\n  function findIdboxUserByPhoneNumber(string _userPhoneNumber) public constant returns(string, address, uint, uint) {\n      return (idboxUsersByPhoneNumber[_userPhoneNumber].phoneNumber, idboxUsersByPhoneNumber[_userPhoneNumber].cardPK, idboxUsersByPhoneNumber[_userPhoneNumber].mineTime, idboxUsersByPhoneNumber[_userPhoneNumber].blockNumber);\n  }\n  function findIdboxUserByWalletPK(address _cardPK) public constant returns(string, address, uint, uint) {\n      string memory phoneNumberFound =  walletPkToPhoneNumber[_cardPK];\n      return (idboxUsersByPhoneNumber[phoneNumberFound].phoneNumber, idboxUsersByPhoneNumber[phoneNumberFound].cardPK, idboxUsersByPhoneNumber[phoneNumberFound].mineTime, idboxUsersByPhoneNumber[phoneNumberFound].blockNumber);\n  }\n}\n",
  "sourcePath": "/Users/leopoldjoy/idbox/idbox-smartcontracts/contracts/Idbox.sol",
  "compiler": {
    "name": "solc",
    "version": "0.4.18+commit.9cf6e910.Emscripten.clang"
  },
  "schemaVersion": "1.0.1",
  "updatedAt": "2018-01-28T04:44:40.627Z"
}